{
  "contractName": "NFT",
  "abi": [
    {
      "inputs": [],
      "stateMutability": "nonpayable",
      "type": "constructor"
    },
    {
      "anonymous": false,
      "inputs": [
        {
          "indexed": false,
          "internalType": "uint256",
          "name": "NFT_ID",
          "type": "uint256"
        },
        {
          "indexed": false,
          "internalType": "string",
          "name": "imgUrl",
          "type": "string"
        },
        {
          "indexed": false,
          "internalType": "uint256",
          "name": "nftprice",
          "type": "uint256"
        },
        {
          "indexed": false,
          "internalType": "string",
          "name": "nft_title",
          "type": "string"
        },
        {
          "indexed": false,
          "internalType": "string",
          "name": "nftDescription",
          "type": "string"
        },
        {
          "indexed": false,
          "internalType": "string",
          "name": "nftcreator",
          "type": "string"
        }
      ],
      "name": "AddNFT",
      "type": "event"
    },
    {
      "anonymous": false,
      "inputs": [
        {
          "indexed": true,
          "internalType": "address",
          "name": "owner",
          "type": "address"
        },
        {
          "indexed": true,
          "internalType": "address",
          "name": "approved",
          "type": "address"
        },
        {
          "indexed": true,
          "internalType": "uint256",
          "name": "tokenId",
          "type": "uint256"
        }
      ],
      "name": "Approval",
      "type": "event"
    },
    {
      "anonymous": false,
      "inputs": [
        {
          "indexed": true,
          "internalType": "address",
          "name": "owner",
          "type": "address"
        },
        {
          "indexed": true,
          "internalType": "address",
          "name": "operator",
          "type": "address"
        },
        {
          "indexed": false,
          "internalType": "bool",
          "name": "approved",
          "type": "bool"
        }
      ],
      "name": "ApprovalForAll",
      "type": "event"
    },
    {
      "anonymous": false,
      "inputs": [
        {
          "indexed": true,
          "internalType": "address",
          "name": "previousOwner",
          "type": "address"
        },
        {
          "indexed": true,
          "internalType": "address",
          "name": "newOwner",
          "type": "address"
        }
      ],
      "name": "OwnershipTransferred",
      "type": "event"
    },
    {
      "anonymous": false,
      "inputs": [
        {
          "indexed": true,
          "internalType": "address",
          "name": "from",
          "type": "address"
        },
        {
          "indexed": true,
          "internalType": "address",
          "name": "to",
          "type": "address"
        },
        {
          "indexed": true,
          "internalType": "uint256",
          "name": "tokenId",
          "type": "uint256"
        }
      ],
      "name": "Transfer",
      "type": "event"
    },
    {
      "anonymous": false,
      "inputs": [
        {
          "indexed": false,
          "internalType": "address",
          "name": "nftowner",
          "type": "address"
        },
        {
          "indexed": false,
          "internalType": "address",
          "name": "buyaddress",
          "type": "address"
        },
        {
          "indexed": false,
          "internalType": "uint256",
          "name": "buyprice",
          "type": "uint256"
        },
        {
          "indexed": false,
          "internalType": "uint256",
          "name": "buytime",
          "type": "uint256"
        }
      ],
      "name": "buynft",
      "type": "event"
    },
    {
      "anonymous": false,
      "inputs": [
        {
          "indexed": false,
          "internalType": "address",
          "name": "nftowner",
          "type": "address"
        },
        {
          "indexed": false,
          "internalType": "uint256",
          "name": "offerPrice",
          "type": "uint256"
        },
        {
          "indexed": false,
          "internalType": "uint256",
          "name": "offercreatedtime",
          "type": "uint256"
        },
        {
          "indexed": false,
          "internalType": "uint256",
          "name": "offerended",
          "type": "uint256"
        }
      ],
      "name": "sellNFT",
      "type": "event"
    },
    {
      "inputs": [
        {
          "internalType": "uint256",
          "name": "",
          "type": "uint256"
        }
      ],
      "name": "NFTId",
      "outputs": [
        {
          "internalType": "uint256",
          "name": "",
          "type": "uint256"
        }
      ],
      "stateMutability": "view",
      "type": "function"
    },
    {
      "inputs": [
        {
          "internalType": "address",
          "name": "to",
          "type": "address"
        },
        {
          "internalType": "uint256",
          "name": "tokenId",
          "type": "uint256"
        }
      ],
      "name": "approve",
      "outputs": [],
      "stateMutability": "nonpayable",
      "type": "function"
    },
    {
      "inputs": [
        {
          "internalType": "address",
          "name": "owner",
          "type": "address"
        }
      ],
      "name": "balanceOf",
      "outputs": [
        {
          "internalType": "uint256",
          "name": "",
          "type": "uint256"
        }
      ],
      "stateMutability": "view",
      "type": "function"
    },
    {
      "inputs": [
        {
          "internalType": "uint256",
          "name": "",
          "type": "uint256"
        }
      ],
      "name": "data",
      "outputs": [
        {
          "internalType": "uint256",
          "name": "id",
          "type": "uint256"
        },
        {
          "internalType": "address",
          "name": "nftowner",
          "type": "address"
        },
        {
          "internalType": "string",
          "name": "imgUrl",
          "type": "string"
        },
        {
          "internalType": "uint256",
          "name": "nftprice",
          "type": "uint256"
        },
        {
          "internalType": "string",
          "name": "nft_title",
          "type": "string"
        },
        {
          "internalType": "string",
          "name": "nftDescription",
          "type": "string"
        },
        {
          "internalType": "string",
          "name": "nftcreator",
          "type": "string"
        }
      ],
      "stateMutability": "view",
      "type": "function"
    },
    {
      "inputs": [
        {
          "internalType": "uint256",
          "name": "tokenId",
          "type": "uint256"
        }
      ],
      "name": "getApproved",
      "outputs": [
        {
          "internalType": "address",
          "name": "",
          "type": "address"
        }
      ],
      "stateMutability": "view",
      "type": "function"
    },
    {
      "inputs": [
        {
          "internalType": "address",
          "name": "owner",
          "type": "address"
        },
        {
          "internalType": "address",
          "name": "operator",
          "type": "address"
        }
      ],
      "name": "isApprovedForAll",
      "outputs": [
        {
          "internalType": "bool",
          "name": "",
          "type": "bool"
        }
      ],
      "stateMutability": "view",
      "type": "function"
    },
    {
      "inputs": [],
      "name": "name",
      "outputs": [
        {
          "internalType": "string",
          "name": "",
          "type": "string"
        }
      ],
      "stateMutability": "view",
      "type": "function"
    },
    {
      "inputs": [],
      "name": "offerExpirationTime",
      "outputs": [
        {
          "internalType": "uint256",
          "name": "",
          "type": "uint256"
        }
      ],
      "stateMutability": "view",
      "type": "function"
    },
    {
      "inputs": [],
      "name": "owner",
      "outputs": [
        {
          "internalType": "address",
          "name": "",
          "type": "address"
        }
      ],
      "stateMutability": "view",
      "type": "function"
    },
    {
      "inputs": [
        {
          "internalType": "uint256",
          "name": "tokenId",
          "type": "uint256"
        }
      ],
      "name": "ownerOf",
      "outputs": [
        {
          "internalType": "address",
          "name": "",
          "type": "address"
        }
      ],
      "stateMutability": "view",
      "type": "function"
    },
    {
      "inputs": [],
      "name": "renounceOwnership",
      "outputs": [],
      "stateMutability": "nonpayable",
      "type": "function"
    },
    {
      "inputs": [
        {
          "internalType": "address",
          "name": "from",
          "type": "address"
        },
        {
          "internalType": "address",
          "name": "to",
          "type": "address"
        },
        {
          "internalType": "uint256",
          "name": "tokenId",
          "type": "uint256"
        }
      ],
      "name": "safeTransferFrom",
      "outputs": [],
      "stateMutability": "nonpayable",
      "type": "function"
    },
    {
      "inputs": [
        {
          "internalType": "address",
          "name": "from",
          "type": "address"
        },
        {
          "internalType": "address",
          "name": "to",
          "type": "address"
        },
        {
          "internalType": "uint256",
          "name": "tokenId",
          "type": "uint256"
        },
        {
          "internalType": "bytes",
          "name": "data",
          "type": "bytes"
        }
      ],
      "name": "safeTransferFrom",
      "outputs": [],
      "stateMutability": "nonpayable",
      "type": "function"
    },
    {
      "inputs": [
        {
          "internalType": "uint256",
          "name": "",
          "type": "uint256"
        }
      ],
      "name": "sellData",
      "outputs": [
        {
          "internalType": "uint256",
          "name": "Id",
          "type": "uint256"
        },
        {
          "internalType": "address",
          "name": "NFTOwner",
          "type": "address"
        },
        {
          "internalType": "uint256",
          "name": "Price",
          "type": "uint256"
        },
        {
          "internalType": "bool",
          "name": "is_Offer",
          "type": "bool"
        },
        {
          "internalType": "uint256",
          "name": "OfferEnd",
          "type": "uint256"
        }
      ],
      "stateMutability": "view",
      "type": "function"
    },
    {
      "inputs": [
        {
          "internalType": "address",
          "name": "operator",
          "type": "address"
        },
        {
          "internalType": "bool",
          "name": "approved",
          "type": "bool"
        }
      ],
      "name": "setApprovalForAll",
      "outputs": [],
      "stateMutability": "nonpayable",
      "type": "function"
    },
    {
      "inputs": [],
      "name": "symbol",
      "outputs": [
        {
          "internalType": "string",
          "name": "",
          "type": "string"
        }
      ],
      "stateMutability": "view",
      "type": "function"
    },
    {
      "inputs": [
        {
          "internalType": "uint256",
          "name": "index",
          "type": "uint256"
        }
      ],
      "name": "tokenByIndex",
      "outputs": [
        {
          "internalType": "uint256",
          "name": "",
          "type": "uint256"
        }
      ],
      "stateMutability": "view",
      "type": "function"
    },
    {
      "inputs": [
        {
          "internalType": "address",
          "name": "owner",
          "type": "address"
        },
        {
          "internalType": "uint256",
          "name": "index",
          "type": "uint256"
        }
      ],
      "name": "tokenOfOwnerByIndex",
      "outputs": [
        {
          "internalType": "uint256",
          "name": "",
          "type": "uint256"
        }
      ],
      "stateMutability": "view",
      "type": "function"
    },
    {
      "inputs": [
        {
          "internalType": "uint256",
          "name": "tokenId",
          "type": "uint256"
        }
      ],
      "name": "tokenURI",
      "outputs": [
        {
          "internalType": "string",
          "name": "",
          "type": "string"
        }
      ],
      "stateMutability": "view",
      "type": "function"
    },
    {
      "inputs": [],
      "name": "totalSupply",
      "outputs": [
        {
          "internalType": "uint256",
          "name": "",
          "type": "uint256"
        }
      ],
      "stateMutability": "view",
      "type": "function"
    },
    {
      "inputs": [
        {
          "internalType": "address",
          "name": "from",
          "type": "address"
        },
        {
          "internalType": "address",
          "name": "to",
          "type": "address"
        },
        {
          "internalType": "uint256",
          "name": "tokenId",
          "type": "uint256"
        }
      ],
      "name": "transferFrom",
      "outputs": [],
      "stateMutability": "nonpayable",
      "type": "function"
    },
    {
      "inputs": [
        {
          "internalType": "address",
          "name": "newOwner",
          "type": "address"
        }
      ],
      "name": "transferOwnership",
      "outputs": [],
      "stateMutability": "nonpayable",
      "type": "function"
    },
    {
      "inputs": [
        {
          "internalType": "address",
          "name": "to",
          "type": "address"
        },
        {
          "internalType": "uint256",
          "name": "tokenId",
          "type": "uint256"
        }
      ],
      "name": "safeMint",
      "outputs": [],
      "stateMutability": "nonpayable",
      "type": "function"
    },
    {
      "inputs": [
        {
          "internalType": "bytes4",
          "name": "interfaceId",
          "type": "bytes4"
        }
      ],
      "name": "supportsInterface",
      "outputs": [
        {
          "internalType": "bool",
          "name": "",
          "type": "bool"
        }
      ],
      "stateMutability": "view",
      "type": "function"
    },
    {
      "inputs": [
        {
          "internalType": "address",
          "name": "_add",
          "type": "address"
        },
        {
          "internalType": "uint256",
          "name": "_price",
          "type": "uint256"
        },
        {
          "internalType": "string",
          "name": "_title",
          "type": "string"
        },
        {
          "internalType": "string",
          "name": "_imgUrl",
          "type": "string"
        },
        {
          "internalType": "string",
          "name": "_des",
          "type": "string"
        },
        {
          "internalType": "string",
          "name": "_creator",
          "type": "string"
        }
      ],
      "name": "Add_nft",
      "outputs": [],
      "stateMutability": "payable",
      "type": "function"
    },
    {
      "inputs": [
        {
          "internalType": "uint256",
          "name": "_id",
          "type": "uint256"
        }
      ],
      "name": "NFT_DATA",
      "outputs": [
        {
          "components": [
            {
              "internalType": "uint256",
              "name": "id",
              "type": "uint256"
            },
            {
              "internalType": "address",
              "name": "nftowner",
              "type": "address"
            },
            {
              "internalType": "string",
              "name": "imgUrl",
              "type": "string"
            },
            {
              "internalType": "uint256",
              "name": "nftprice",
              "type": "uint256"
            },
            {
              "internalType": "string",
              "name": "nft_title",
              "type": "string"
            },
            {
              "internalType": "string",
              "name": "nftDescription",
              "type": "string"
            },
            {
              "internalType": "string",
              "name": "nftcreator",
              "type": "string"
            }
          ],
          "internalType": "struct NFT.Detail",
          "name": "",
          "type": "tuple"
        }
      ],
      "stateMutability": "view",
      "type": "function"
    },
    {
      "inputs": [
        {
          "internalType": "uint256",
          "name": "_id",
          "type": "uint256"
        }
      ],
      "name": "IMG_URL",
      "outputs": [
        {
          "internalType": "string",
          "name": "",
          "type": "string"
        }
      ],
      "stateMutability": "view",
      "type": "function"
    },
    {
      "inputs": [
        {
          "internalType": "uint256",
          "name": "_ID",
          "type": "uint256"
        },
        {
          "internalType": "uint256",
          "name": "_price",
          "type": "uint256"
        }
      ],
      "name": "SellNFT",
      "outputs": [
        {
          "internalType": "string",
          "name": "",
          "type": "string"
        }
      ],
      "stateMutability": "nonpayable",
      "type": "function"
    },
    {
      "inputs": [
        {
          "internalType": "uint256",
          "name": "_ID",
          "type": "uint256"
        }
      ],
      "name": "RemoveSell",
      "outputs": [],
      "stateMutability": "nonpayable",
      "type": "function"
    },
    {
      "inputs": [],
      "name": "ArrayLengh",
      "outputs": [
        {
          "internalType": "uint256",
          "name": "",
          "type": "uint256"
        }
      ],
      "stateMutability": "view",
      "type": "function"
    },
    {
      "inputs": [
        {
          "internalType": "uint256",
          "name": "_ID",
          "type": "uint256"
        }
      ],
      "name": "BuyNFT",
      "outputs": [
        {
          "internalType": "string",
          "name": "",
          "type": "string"
        }
      ],
      "stateMutability": "payable",
      "type": "function"
    },
    {
      "inputs": [
        {
          "internalType": "uint256",
          "name": "_index",
          "type": "uint256"
        }
      ],
      "name": "Offer_ID",
      "outputs": [
        {
          "internalType": "uint256",
          "name": "",
          "type": "uint256"
        }
      ],
      "stateMutability": "view",
      "type": "function"
    },
    {
      "inputs": [],
      "name": "offerExpired",
      "outputs": [
        {
          "internalType": "bool",
          "name": "",
          "type": "bool"
        }
      ],
      "stateMutability": "view",
      "type": "function"
    }
  ],
  "bytecode": "0x60806040526001600b5534801562000015575f80fd5b506040518060400160405280600781526020017f4d79546f6b656e000000000000000000000000000000000000000000000000008152506040518060400160405280600381526020017f4d544b0000000000000000000000000000000000000000000000000000000000815250815f9081620000929190620003fb565b508060019081620000a49190620003fb565b505050620000c7620000bb620000cd60201b60201c565b620000d460201b60201c565b620004df565b5f33905090565b5f600a5f9054906101000a900473ffffffffffffffffffffffffffffffffffffffff16905081600a5f6101000a81548173ffffffffffffffffffffffffffffffffffffffff021916908373ffffffffffffffffffffffffffffffffffffffff1602179055508173ffffffffffffffffffffffffffffffffffffffff168173ffffffffffffffffffffffffffffffffffffffff167f8be0079c531659141344cd1fd0a4f28419497f9722a3daafe3b4186f6b6457e060405160405180910390a35050565b5f81519050919050565b7f4e487b71000000000000000000000000000000000000000000000000000000005f52604160045260245ffd5b7f4e487b71000000000000000000000000000000000000000000000000000000005f52602260045260245ffd5b5f60028204905060018216806200021357607f821691505b602082108103620002295762000228620001ce565b5b50919050565b5f819050815f5260205f209050919050565b5f6020601f8301049050919050565b5f82821b905092915050565b5f600883026200028d7fffffffffffffffffffffffffffffffffffffffffffffffffffffffffffffffff8262000250565b62000299868362000250565b95508019841693508086168417925050509392505050565b5f819050919050565b5f819050919050565b5f620002e3620002dd620002d784620002b1565b620002ba565b620002b1565b9050919050565b5f819050919050565b620002fe83620002c3565b620003166200030d82620002ea565b8484546200025c565b825550505050565b5f90565b6200032c6200031e565b62000339818484620002f3565b505050565b5b818110156200036057620003545f8262000322565b6001810190506200033f565b5050565b601f821115620003af5762000379816200022f565b620003848462000241565b8101602085101562000394578190505b620003ac620003a38562000241565b8301826200033e565b50505b505050565b5f82821c905092915050565b5f620003d15f1984600802620003b4565b1980831691505092915050565b5f620003eb8383620003c0565b9150826002028217905092915050565b620004068262000197565b67ffffffffffffffff811115620004225762000421620001a1565b5b6200042e8254620001fb565b6200043b82828562000364565b5f60209050601f83116001811462000471575f84156200045c578287015190505b620004688582620003de565b865550620004d7565b601f19841662000481866200022f565b5f5b82811015620004aa5784890151825560018201915060208501945060208101905062000483565b86831015620004ca5784890151620004c6601f891682620003c0565b8355505b6001600288020188555050505b505050505050565b614e8a80620004ed5f395ff3fe6080604052600436106101ed575f3560e01c80636d3bb88e1161010c578063a37365e01161009f578063d2d5f9341161006e578063d2d5f93414610729578063dd4c85a514610765578063e985e9c5146107a1578063f0ba8440146107dd578063f2fde38b1461081f576101ed565b8063a37365e014610659578063a632f80014610689578063b88d4fde146106c5578063c87b56dd146106ed576101ed565b80638da5cb5b116100db5780638da5cb5b146105b557806395d89b41146105df578063a144819414610609578063a22cb46514610631576101ed565b80636d3bb88e1461050f57806370a0823114610539578063715018a6146105755780637c6edf071461058b576101ed565b80632a70dcfe116101845780634e461037116101535780634e4610371461041f5780634f6ccce71461045b578063547165ac146104975780636352211e146104d3576101ed565b80632a70dcfe146103535780632f745c591461037b57806342842e0e146103b7578063453451a4146103df576101ed565b806318160ddd116101c057806318160ddd146102bb5780631c01a61f146102e557806323b872dd14610301578063271e044e14610329576101ed565b806301ffc9a7146101f157806306fdde031461022d578063081812fc14610257578063095ea7b314610293575b5f80fd5b3480156101fc575f80fd5b5061021760048036038101906102129190613531565b610847565b6040516102249190613576565b60405180910390f35b348015610238575f80fd5b50610241610858565b60405161024e9190613619565b60405180910390f35b348015610262575f80fd5b5061027d6004803603810190610278919061366c565b6108e7565b60405161028a91906136d6565b60405180910390f35b34801561029e575f80fd5b506102b960048036038101906102b49190613719565b610929565b005b3480156102c6575f80fd5b506102cf610a3f565b6040516102dc9190613766565b60405180910390f35b6102ff60048036038101906102fa91906138ab565b610a4b565b005b34801561030c575f80fd5b50610327600480360381019061032291906139a4565b610d2c565b005b348015610334575f80fd5b5061033d610d8c565b60405161034a9190613766565b60405180910390f35b34801561035e575f80fd5b506103796004803603810190610374919061366c565b610d92565b005b348015610386575f80fd5b506103a1600480360381019061039c9190613719565b610e9c565b6040516103ae9190613766565b60405180910390f35b3480156103c2575f80fd5b506103dd60048036038101906103d891906139a4565b610f3c565b005b3480156103ea575f80fd5b506104056004803603810190610400919061366c565b610f5b565b6040516104169594939291906139f4565b60405180910390f35b34801561042a575f80fd5b506104456004803603810190610440919061366c565b610fb8565b6040516104529190613766565b60405180910390f35b348015610466575f80fd5b50610481600480360381019061047c919061366c565b610fd8565b60405161048e9190613766565b60405180910390f35b3480156104a2575f80fd5b506104bd60048036038101906104b8919061366c565b611046565b6040516104ca9190613619565b60405180910390f35b3480156104de575f80fd5b506104f960048036038101906104f4919061366c565b6110ea565b60405161050691906136d6565b60405180910390f35b34801561051a575f80fd5b5061052361116e565b6040516105309190613766565b60405180910390f35b348015610544575f80fd5b5061055f600480360381019061055a9190613a45565b61117a565b60405161056c9190613766565b60405180910390f35b348015610580575f80fd5b5061058961122e565b005b348015610596575f80fd5b5061059f611241565b6040516105ac9190613576565b60405180910390f35b3480156105c0575f80fd5b506105c961124d565b6040516105d691906136d6565b60405180910390f35b3480156105ea575f80fd5b506105f3611275565b6040516106009190613619565b60405180910390f35b348015610614575f80fd5b5061062f600480360381019061062a9190613719565b611305565b005b34801561063c575f80fd5b5061065760048036038101906106529190613a9a565b61131b565b005b610673600480360381019061066e919061366c565b611331565b6040516106809190613619565b60405180910390f35b348015610694575f80fd5b506106af60048036038101906106aa9190613ad8565b611644565b6040516106bc9190613619565b60405180910390f35b3480156106d0575f80fd5b506106eb60048036038101906106e69190613bb4565b6118c5565b005b3480156106f8575f80fd5b50610713600480360381019061070e919061366c565b611927565b6040516107209190613619565b60405180910390f35b348015610734575f80fd5b5061074f600480360381019061074a919061366c565b61198c565b60405161075c9190613d48565b60405180910390f35b348015610770575f80fd5b5061078b6004803603810190610786919061366c565b611c5f565b6040516107989190613766565b60405180910390f35b3480156107ac575f80fd5b506107c760048036038101906107c29190613d68565b611c84565b6040516107d49190613576565b60405180910390f35b3480156107e8575f80fd5b5061080360048036038101906107fe919061366c565b611d12565b6040516108169796959493929190613da6565b60405180910390f35b34801561082a575f80fd5b5061084560048036038101906108409190613a45565b611f87565b005b5f61085182612009565b9050919050565b60605f805461086690613e5c565b80601f016020809104026020016040519081016040528092919081815260200182805461089290613e5c565b80156108dd5780601f106108b4576101008083540402835291602001916108dd565b820191905f5260205f20905b8154815290600101906020018083116108c057829003601f168201915b5050505050905090565b5f6108f182612082565b60045f8381526020019081526020015f205f9054906101000a900473ffffffffffffffffffffffffffffffffffffffff169050919050565b5f610933826110ea565b90508073ffffffffffffffffffffffffffffffffffffffff168373ffffffffffffffffffffffffffffffffffffffff16036109a3576040517f08c379a000000000000000000000000000000000000000000000000000000000815260040161099a90613efc565b60405180910390fd5b8073ffffffffffffffffffffffffffffffffffffffff166109c26120cd565b73ffffffffffffffffffffffffffffffffffffffff1614806109f157506109f0816109eb6120cd565b611c84565b5b610a30576040517f08c379a0000000000000000000000000000000000000000000000000000000008152600401610a2790613f8a565b60405180910390fd5b610a3a83836120d4565b505050565b5f600880549050905090565b610a5786600b5461218a565b6040518060e00160405280600b5481526020018773ffffffffffffffffffffffffffffffffffffffff16815260200184815260200186815260200185815260200183815260200182815250600f5f600b5481526020019081526020015f205f820151815f01556020820151816001015f6101000a81548173ffffffffffffffffffffffffffffffffffffffff021916908373ffffffffffffffffffffffffffffffffffffffff1602179055506040820151816002019081610b189190614145565b50606082015181600301556080820151816004019081610b389190614145565b5060a0820151816005019081610b4e9190614145565b5060c0820151816006019081610b649190614145565b5090505060105f8773ffffffffffffffffffffffffffffffffffffffff1673ffffffffffffffffffffffffffffffffffffffff1681526020019081526020015f206040518060e00160405280600b5481526020018873ffffffffffffffffffffffffffffffffffffffff16815260200185815260200187815260200186815260200184815260200183815250908060018154018082558091505060019003905f5260205f2090600702015f909190919091505f820151815f01556020820151816001015f6101000a81548173ffffffffffffffffffffffffffffffffffffffff021916908373ffffffffffffffffffffffffffffffffffffffff1602179055506040820151816002019081610c799190614145565b50606082015181600301556080820151816004019081610c999190614145565b5060a0820151816005019081610caf9190614145565b5060c0820151816006019081610cc59190614145565b5050507ffb3238df4a2b58b5670221202a81a47baf87e0fe882581f2b05e4a0198eb4fa0600b548487878686604051610d0396959493929190614214565b60405180910390a16001600b5f828254610d1d91906142bc565b92505081905550505050505050565b610d3d610d376120cd565b8261239d565b610d7c576040517f08c379a0000000000000000000000000000000000000000000000000000000008152600401610d739061435f565b60405180910390fd5b610d87838383612431565b505050565b600d5481565b3373ffffffffffffffffffffffffffffffffffffffff16600e5f8381526020019081526020015f206001015f9054906101000a900473ffffffffffffffffffffffffffffffffffffffff1673ffffffffffffffffffffffffffffffffffffffff1614610e33576040517f08c379a0000000000000000000000000000000000000000000000000000000008152600401610e2a906143c7565b60405180910390fd5b5f5b600c80549050811015610e985781600c8281548110610e5757610e566143e5565b5b905f5260205f20015403610e8557600c8181548110610e7957610e786143e5565b5b905f5260205f20015f90555b8080610e9090614412565b915050610e35565b5050565b5f610ea68361117a565b8210610ee7576040517f08c379a0000000000000000000000000000000000000000000000000000000008152600401610ede906144c9565b60405180910390fd5b60065f8473ffffffffffffffffffffffffffffffffffffffff1673ffffffffffffffffffffffffffffffffffffffff1681526020019081526020015f205f8381526020019081526020015f2054905092915050565b610f5683838360405180602001604052805f8152506118c5565b505050565b600e602052805f5260405f205f91509050805f015490806001015f9054906101000a900473ffffffffffffffffffffffffffffffffffffffff1690806002015490806003015f9054906101000a900460ff16908060040154905085565b600c8181548110610fc7575f80fd5b905f5260205f20015f915090505481565b5f610fe1610a3f565b8210611022576040517f08c379a000000000000000000000000000000000000000000000000000000000815260040161101990614557565b60405180910390fd5b60088281548110611036576110356143e5565b5b905f5260205f2001549050919050565b6060600f5f8381526020019081526020015f20600201805461106790613e5c565b80601f016020809104026020016040519081016040528092919081815260200182805461109390613e5c565b80156110de5780601f106110b5576101008083540402835291602001916110de565b820191905f5260205f20905b8154815290600101906020018083116110c157829003601f168201915b50505050509050919050565b5f806110f58361271d565b90505f73ffffffffffffffffffffffffffffffffffffffff168173ffffffffffffffffffffffffffffffffffffffff1603611165576040517f08c379a000000000000000000000000000000000000000000000000000000000815260040161115c906145bf565b60405180910390fd5b80915050919050565b5f600c80549050905090565b5f8073ffffffffffffffffffffffffffffffffffffffff168273ffffffffffffffffffffffffffffffffffffffff16036111e9576040517f08c379a00000000000000000000000000000000000000000000000000000000081526004016111e09061464d565b60405180910390fd5b60035f8373ffffffffffffffffffffffffffffffffffffffff1673ffffffffffffffffffffffffffffffffffffffff1681526020019081526020015f20549050919050565b611236612756565b61123f5f6127d4565b565b5f600d54421015905090565b5f600a5f9054906101000a900473ffffffffffffffffffffffffffffffffffffffff16905090565b60606001805461128490613e5c565b80601f01602080910402602001604051908101604052809291908181526020018280546112b090613e5c565b80156112fb5780601f106112d2576101008083540402835291602001916112fb565b820191905f5260205f20905b8154815290600101906020018083116112de57829003601f168201915b5050505050905090565b61130d612756565b6113178282612897565b5050565b61132d6113266120cd565b83836128b4565b5050565b606042600d541015611378576040517f08c379a000000000000000000000000000000000000000000000000000000000815260040161136f906146b5565b60405180910390fd5b42600d5411611408575f600e5f8481526020019081526020015f206003015f6101000a81548160ff021916908315150217905550600c5f815481106113c0576113bf6143e5565b5b905f5260205f20015f90556040518060400160405280601381526020017f54686973204f6666657220697320656e64656400000000000000000000000000815250905061163f565b6001600e5f8481526020019081526020015f206003015f6101000a81548160ff02191690831515021790555061143e33836120d4565b5f600f5f8481526020019081526020015f206001015f9054906101000a900473ffffffffffffffffffffffffffffffffffffffff169050611480813385610f3c565b8073ffffffffffffffffffffffffffffffffffffffff166108fc3490811502906040515f60405180830381858888f193505050501580156114c3573d5f803e3d5ffd5b5033600f5f8581526020019081526020015f206001015f6101000a81548173ffffffffffffffffffffffffffffffffffffffff021916908373ffffffffffffffffffffffffffffffffffffffff160217905550600e5f8481526020019081526020015f2060020154600f5f8581526020019081526020015f206003018190555033600e5f8581526020019081526020015f206001015f6101000a81548173ffffffffffffffffffffffffffffffffffffffff021916908373ffffffffffffffffffffffffffffffffffffffff1602179055507ffa37eb71a6a7a3ee16dabe9d2ccbe2a6ffeae205c704ad48f63ba954424bf2058133600e5f8781526020019081526020015f2060020154426040516115de94939291906146d3565b60405180910390a1600c5f815481106115fa576115f96143e5565b5b905f5260205f20015f9055506040518060400160405280601781526020017f4e4654207075726368617365207375636365737366756c00000000000000000081525090505b919050565b606061164f83612a1b565b61168e576040517f08c379a000000000000000000000000000000000000000000000000000000000815260040161168590614760565b60405180910390fd5b600f5f8481526020019081526020015f206001015f9054906101000a900473ffffffffffffffffffffffffffffffffffffffff1673ffffffffffffffffffffffffffffffffffffffff163373ffffffffffffffffffffffffffffffffffffffff161461172f576040517f08c379a0000000000000000000000000000000000000000000000000000000008152600401611726906147c8565b60405180910390fd5b6040518060a001604052808481526020013373ffffffffffffffffffffffffffffffffffffffff16815260200183815260200160011515815260200142815250600e5f8581526020019081526020015f205f820151815f01556020820151816001015f6101000a81548173ffffffffffffffffffffffffffffffffffffffff021916908373ffffffffffffffffffffffffffffffffffffffff160217905550604082015181600201556060820151816003015f6101000a81548160ff021916908315150217905550608082015181600401559050506102584261181291906142bc565b600d8190555061182230846120d4565b600c83908060018154018082558091505060019003905f5260205f20015f90919091909150557fea92dfa870170e402c50cf863a2b8b9a4429a524f5a0932b46c10de5560e2c42338342600d5460405161187f94939291906147e6565b60405180910390a16040518060400160405280601481526020017f73756365737366756c6c792073656c6c206e6674000000000000000000000000815250905092915050565b6118d66118d06120cd565b8361239d565b611915576040517f08c379a000000000000000000000000000000000000000000000000000000000815260040161190c9061435f565b60405180910390fd5b61192184848484612a5b565b50505050565b606061193282612082565b5f61193b612ab7565b90505f8151116119595760405180602001604052805f815250611984565b8061196384612acd565b604051602001611974929190614863565b6040516020818303038152906040525b915050919050565b61199461347b565b600f5f8381526020019081526020015f206040518060e00160405290815f8201548152602001600182015f9054906101000a900473ffffffffffffffffffffffffffffffffffffffff1673ffffffffffffffffffffffffffffffffffffffff1673ffffffffffffffffffffffffffffffffffffffff168152602001600282018054611a1e90613e5c565b80601f0160208091040260200160405190810160405280929190818152602001828054611a4a90613e5c565b8015611a955780601f10611a6c57610100808354040283529160200191611a95565b820191905f5260205f20905b815481529060010190602001808311611a7857829003601f168201915b5050505050815260200160038201548152602001600482018054611ab890613e5c565b80601f0160208091040260200160405190810160405280929190818152602001828054611ae490613e5c565b8015611b2f5780601f10611b0657610100808354040283529160200191611b2f565b820191905f5260205f20905b815481529060010190602001808311611b1257829003601f168201915b50505050508152602001600582018054611b4890613e5c565b80601f0160208091040260200160405190810160405280929190818152602001828054611b7490613e5c565b8015611bbf5780601f10611b9657610100808354040283529160200191611bbf565b820191905f5260205f20905b815481529060010190602001808311611ba257829003601f168201915b50505050508152602001600682018054611bd890613e5c565b80601f0160208091040260200160405190810160405280929190818152602001828054611c0490613e5c565b8015611c4f5780601f10611c2657610100808354040283529160200191611c4f565b820191905f5260205f20905b815481529060010190602001808311611c3257829003601f168201915b5050505050815250509050919050565b5f600c8281548110611c7457611c736143e5565b5b905f5260205f2001549050919050565b5f60055f8473ffffffffffffffffffffffffffffffffffffffff1673ffffffffffffffffffffffffffffffffffffffff1681526020019081526020015f205f8373ffffffffffffffffffffffffffffffffffffffff1673ffffffffffffffffffffffffffffffffffffffff1681526020019081526020015f205f9054906101000a900460ff16905092915050565b600f602052805f5260405f205f91509050805f015490806001015f9054906101000a900473ffffffffffffffffffffffffffffffffffffffff1690806002018054611d5c90613e5c565b80601f0160208091040260200160405190810160405280929190818152602001828054611d8890613e5c565b8015611dd35780601f10611daa57610100808354040283529160200191611dd3565b820191905f5260205f20905b815481529060010190602001808311611db657829003601f168201915b505050505090806003015490806004018054611dee90613e5c565b80601f0160208091040260200160405190810160405280929190818152602001828054611e1a90613e5c565b8015611e655780601f10611e3c57610100808354040283529160200191611e65565b820191905f5260205f20905b815481529060010190602001808311611e4857829003601f168201915b505050505090806005018054611e7a90613e5c565b80601f0160208091040260200160405190810160405280929190818152602001828054611ea690613e5c565b8015611ef15780601f10611ec857610100808354040283529160200191611ef1565b820191905f5260205f20905b815481529060010190602001808311611ed457829003601f168201915b505050505090806006018054611f0690613e5c565b80601f0160208091040260200160405190810160405280929190818152602001828054611f3290613e5c565b8015611f7d5780601f10611f5457610100808354040283529160200191611f7d565b820191905f5260205f20905b815481529060010190602001808311611f6057829003601f168201915b5050505050905087565b611f8f612756565b5f73ffffffffffffffffffffffffffffffffffffffff168173ffffffffffffffffffffffffffffffffffffffff1603611ffd576040517f08c379a0000000000000000000000000000000000000000000000000000000008152600401611ff4906148f6565b60405180910390fd5b612006816127d4565b50565b5f7f780e9d63000000000000000000000000000000000000000000000000000000007bffffffffffffffffffffffffffffffffffffffffffffffffffffffff1916827bffffffffffffffffffffffffffffffffffffffffffffffffffffffff1916148061207b575061207a82612b97565b5b9050919050565b61208b81612a1b565b6120ca576040517f08c379a00000000000000000000000000000000000000000000000000000000081526004016120c1906145bf565b60405180910390fd5b50565b5f33905090565b8160045f8381526020019081526020015f205f6101000a81548173ffffffffffffffffffffffffffffffffffffffff021916908373ffffffffffffffffffffffffffffffffffffffff160217905550808273ffffffffffffffffffffffffffffffffffffffff16612144836110ea565b73ffffffffffffffffffffffffffffffffffffffff167f8c5be1e5ebec7d5bd14f71427d1e84f3dd0314c0f7b2291e5b200ac8c7c3b92560405160405180910390a45050565b5f73ffffffffffffffffffffffffffffffffffffffff168273ffffffffffffffffffffffffffffffffffffffff16036121f8576040517f08c379a00000000000000000000000000000000000000000000000000000000081526004016121ef9061495e565b60405180910390fd5b61220181612a1b565b15612241576040517f08c379a0000000000000000000000000000000000000000000000000000000008152600401612238906149c6565b60405180910390fd5b61224e5f83836001612c78565b61225781612a1b565b15612297576040517f08c379a000000000000000000000000000000000000000000000000000000000815260040161228e906149c6565b60405180910390fd5b600160035f8473ffffffffffffffffffffffffffffffffffffffff1673ffffffffffffffffffffffffffffffffffffffff1681526020019081526020015f205f82825401925050819055508160025f8381526020019081526020015f205f6101000a81548173ffffffffffffffffffffffffffffffffffffffff021916908373ffffffffffffffffffffffffffffffffffffffff160217905550808273ffffffffffffffffffffffffffffffffffffffff165f73ffffffffffffffffffffffffffffffffffffffff167fddf252ad1be2c89b69c2b068fc378daa952ba7f163c4a11628f55a4df523b3ef60405160405180910390a46123995f83836001612c8a565b5050565b5f806123a8836110ea565b90508073ffffffffffffffffffffffffffffffffffffffff168473ffffffffffffffffffffffffffffffffffffffff1614806123ea57506123e98185611c84565b5b8061242857508373ffffffffffffffffffffffffffffffffffffffff16612410846108e7565b73ffffffffffffffffffffffffffffffffffffffff16145b91505092915050565b8273ffffffffffffffffffffffffffffffffffffffff16612451826110ea565b73ffffffffffffffffffffffffffffffffffffffff16146124a7576040517f08c379a000000000000000000000000000000000000000000000000000000000815260040161249e90614a54565b60405180910390fd5b5f73ffffffffffffffffffffffffffffffffffffffff168273ffffffffffffffffffffffffffffffffffffffff1603612515576040517f08c379a000000000000000000000000000000000000000000000000000000000815260040161250c90614ae2565b60405180910390fd5b6125228383836001612c78565b8273ffffffffffffffffffffffffffffffffffffffff16612542826110ea565b73ffffffffffffffffffffffffffffffffffffffff1614612598576040517f08c379a000000000000000000000000000000000000000000000000000000000815260040161258f90614a54565b60405180910390fd5b60045f8281526020019081526020015f205f6101000a81549073ffffffffffffffffffffffffffffffffffffffff0219169055600160035f8573ffffffffffffffffffffffffffffffffffffffff1673ffffffffffffffffffffffffffffffffffffffff1681526020019081526020015f205f8282540392505081905550600160035f8473ffffffffffffffffffffffffffffffffffffffff1673ffffffffffffffffffffffffffffffffffffffff1681526020019081526020015f205f82825401925050819055508160025f8381526020019081526020015f205f6101000a81548173ffffffffffffffffffffffffffffffffffffffff021916908373ffffffffffffffffffffffffffffffffffffffff160217905550808273ffffffffffffffffffffffffffffffffffffffff168473ffffffffffffffffffffffffffffffffffffffff167fddf252ad1be2c89b69c2b068fc378daa952ba7f163c4a11628f55a4df523b3ef60405160405180910390a46127188383836001612c8a565b505050565b5f60025f8381526020019081526020015f205f9054906101000a900473ffffffffffffffffffffffffffffffffffffffff169050919050565b61275e6120cd565b73ffffffffffffffffffffffffffffffffffffffff1661277c61124d565b73ffffffffffffffffffffffffffffffffffffffff16146127d2576040517f08c379a00000000000000000000000000000000000000000000000000000000081526004016127c990614b4a565b60405180910390fd5b565b5f600a5f9054906101000a900473ffffffffffffffffffffffffffffffffffffffff16905081600a5f6101000a81548173ffffffffffffffffffffffffffffffffffffffff021916908373ffffffffffffffffffffffffffffffffffffffff1602179055508173ffffffffffffffffffffffffffffffffffffffff168173ffffffffffffffffffffffffffffffffffffffff167f8be0079c531659141344cd1fd0a4f28419497f9722a3daafe3b4186f6b6457e060405160405180910390a35050565b6128b0828260405180602001604052805f815250612c90565b5050565b8173ffffffffffffffffffffffffffffffffffffffff168373ffffffffffffffffffffffffffffffffffffffff1603612922576040517f08c379a000000000000000000000000000000000000000000000000000000000815260040161291990614bb2565b60405180910390fd5b8060055f8573ffffffffffffffffffffffffffffffffffffffff1673ffffffffffffffffffffffffffffffffffffffff1681526020019081526020015f205f8473ffffffffffffffffffffffffffffffffffffffff1673ffffffffffffffffffffffffffffffffffffffff1681526020019081526020015f205f6101000a81548160ff0219169083151502179055508173ffffffffffffffffffffffffffffffffffffffff168373ffffffffffffffffffffffffffffffffffffffff167f17307eab39ab6107e8899845ad3d59bd9653f200f220920489ca2b5937696c3183604051612a0e9190613576565b60405180910390a3505050565b5f8073ffffffffffffffffffffffffffffffffffffffff16612a3c8361271d565b73ffffffffffffffffffffffffffffffffffffffff1614159050919050565b612a66848484612431565b612a7284848484612cea565b612ab1576040517f08c379a0000000000000000000000000000000000000000000000000000000008152600401612aa890614c40565b60405180910390fd5b50505050565b606060405180602001604052805f815250905090565b60605f6001612adb84612e6c565b0190505f8167ffffffffffffffff811115612af957612af8613787565b5b6040519080825280601f01601f191660200182016040528015612b2b5781602001600182028036833780820191505090505b5090505f82602001820190505b600115612b8c578080600190039150507f3031323334353637383961626364656600000000000000000000000000000000600a86061a8153600a8581612b8157612b80614c5e565b5b0494505f8503612b38575b819350505050919050565b5f7f80ac58cd000000000000000000000000000000000000000000000000000000007bffffffffffffffffffffffffffffffffffffffffffffffffffffffff1916827bffffffffffffffffffffffffffffffffffffffffffffffffffffffff19161480612c6157507f5b5e139f000000000000000000000000000000000000000000000000000000007bffffffffffffffffffffffffffffffffffffffffffffffffffffffff1916827bffffffffffffffffffffffffffffffffffffffffffffffffffffffff1916145b80612c715750612c7082612fbd565b5b9050919050565b612c8484848484613026565b50505050565b50505050565b612c9a838361218a565b612ca65f848484612cea565b612ce5576040517f08c379a0000000000000000000000000000000000000000000000000000000008152600401612cdc90614c40565b60405180910390fd5b505050565b5f612d0a8473ffffffffffffffffffffffffffffffffffffffff16613181565b15612e5f578373ffffffffffffffffffffffffffffffffffffffff1663150b7a02612d336120cd565b8786866040518563ffffffff1660e01b8152600401612d559493929190614cdd565b6020604051808303815f875af1925050508015612d9057506040513d601f19601f82011682018060405250810190612d8d9190614d3b565b60015b612e0f573d805f8114612dbe576040519150601f19603f3d011682016040523d82523d5f602084013e612dc3565b606091505b505f815103612e07576040517f08c379a0000000000000000000000000000000000000000000000000000000008152600401612dfe90614c40565b60405180910390fd5b805181602001fd5b63150b7a0260e01b7bffffffffffffffffffffffffffffffffffffffffffffffffffffffff1916817bffffffffffffffffffffffffffffffffffffffffffffffffffffffff191614915050612e64565b600190505b949350505050565b5f805f90507a184f03e93ff9f4daa797ed6e38ed64bf6a1f0100000000000000008310612ec8577a184f03e93ff9f4daa797ed6e38ed64bf6a1f0100000000000000008381612ebe57612ebd614c5e565b5b0492506040810190505b6d04ee2d6d415b85acef81000000008310612f05576d04ee2d6d415b85acef81000000008381612efb57612efa614c5e565b5b0492506020810190505b662386f26fc100008310612f3457662386f26fc100008381612f2a57612f29614c5e565b5b0492506010810190505b6305f5e1008310612f5d576305f5e1008381612f5357612f52614c5e565b5b0492506008810190505b6127108310612f82576127108381612f7857612f77614c5e565b5b0492506004810190505b60648310612fa55760648381612f9b57612f9a614c5e565b5b0492506002810190505b600a8310612fb4576001810190505b80915050919050565b5f7f01ffc9a7000000000000000000000000000000000000000000000000000000007bffffffffffffffffffffffffffffffffffffffffffffffffffffffff1916827bffffffffffffffffffffffffffffffffffffffffffffffffffffffff1916149050919050565b613032848484846131a3565b6001811115613076576040517f08c379a000000000000000000000000000000000000000000000000000000000815260040161306d90614dd6565b60405180910390fd5b5f8290505f73ffffffffffffffffffffffffffffffffffffffff168573ffffffffffffffffffffffffffffffffffffffff16036130bb576130b6816131a9565b6130fa565b8373ffffffffffffffffffffffffffffffffffffffff168573ffffffffffffffffffffffffffffffffffffffff16146130f9576130f885826131ed565b5b5b5f73ffffffffffffffffffffffffffffffffffffffff168473ffffffffffffffffffffffffffffffffffffffff160361313b5761313681613343565b61317a565b8473ffffffffffffffffffffffffffffffffffffffff168473ffffffffffffffffffffffffffffffffffffffff1614613179576131788482613403565b5b5b5050505050565b5f808273ffffffffffffffffffffffffffffffffffffffff163b119050919050565b50505050565b60088054905060095f8381526020019081526020015f2081905550600881908060018154018082558091505060019003905f5260205f20015f909190919091505550565b5f60016131f98461117a565b6132039190614df4565b90505f60075f8481526020019081526020015f205490508181146132da575f60065f8673ffffffffffffffffffffffffffffffffffffffff1673ffffffffffffffffffffffffffffffffffffffff1681526020019081526020015f205f8481526020019081526020015f205490508060065f8773ffffffffffffffffffffffffffffffffffffffff1673ffffffffffffffffffffffffffffffffffffffff1681526020019081526020015f205f8481526020019081526020015f20819055508160075f8381526020019081526020015f2081905550505b60075f8481526020019081526020015f205f905560065f8573ffffffffffffffffffffffffffffffffffffffff1673ffffffffffffffffffffffffffffffffffffffff1681526020019081526020015f205f8381526020019081526020015f205f905550505050565b5f60016008805490506133569190614df4565b90505f60095f8481526020019081526020015f205490505f60088381548110613382576133816143e5565b5b905f5260205f200154905080600883815481106133a2576133a16143e5565b5b905f5260205f2001819055508160095f8381526020019081526020015f208190555060095f8581526020019081526020015f205f905560088054806133ea576133e9614e27565b5b600190038181905f5260205f20015f9055905550505050565b5f61340d8361117a565b90508160065f8573ffffffffffffffffffffffffffffffffffffffff1673ffffffffffffffffffffffffffffffffffffffff1681526020019081526020015f205f8381526020019081526020015f20819055508060075f8481526020019081526020015f2081905550505050565b6040518060e001604052805f81526020015f73ffffffffffffffffffffffffffffffffffffffff168152602001606081526020015f81526020016060815260200160608152602001606081525090565b5f604051905090565b5f80fd5b5f80fd5b5f7fffffffff0000000000000000000000000000000000000000000000000000000082169050919050565b613510816134dc565b811461351a575f80fd5b50565b5f8135905061352b81613507565b92915050565b5f60208284031215613546576135456134d4565b5b5f6135538482850161351d565b91505092915050565b5f8115159050919050565b6135708161355c565b82525050565b5f6020820190506135895f830184613567565b92915050565b5f81519050919050565b5f82825260208201905092915050565b5f5b838110156135c65780820151818401526020810190506135ab565b5f8484015250505050565b5f601f19601f8301169050919050565b5f6135eb8261358f565b6135f58185613599565b93506136058185602086016135a9565b61360e816135d1565b840191505092915050565b5f6020820190508181035f83015261363181846135e1565b905092915050565b5f819050919050565b61364b81613639565b8114613655575f80fd5b50565b5f8135905061366681613642565b92915050565b5f60208284031215613681576136806134d4565b5b5f61368e84828501613658565b91505092915050565b5f73ffffffffffffffffffffffffffffffffffffffff82169050919050565b5f6136c082613697565b9050919050565b6136d0816136b6565b82525050565b5f6020820190506136e95f8301846136c7565b92915050565b6136f8816136b6565b8114613702575f80fd5b50565b5f81359050613713816136ef565b92915050565b5f806040838503121561372f5761372e6134d4565b5b5f61373c85828601613705565b925050602061374d85828601613658565b9150509250929050565b61376081613639565b82525050565b5f6020820190506137795f830184613757565b92915050565b5f80fd5b5f80fd5b7f4e487b71000000000000000000000000000000000000000000000000000000005f52604160045260245ffd5b6137bd826135d1565b810181811067ffffffffffffffff821117156137dc576137db613787565b5b80604052505050565b5f6137ee6134cb565b90506137fa82826137b4565b919050565b5f67ffffffffffffffff82111561381957613818613787565b5b613822826135d1565b9050602081019050919050565b828183375f83830152505050565b5f61384f61384a846137ff565b6137e5565b90508281526020810184848401111561386b5761386a613783565b5b61387684828561382f565b509392505050565b5f82601f8301126138925761389161377f565b5b81356138a284826020860161383d565b91505092915050565b5f805f805f8060c087890312156138c5576138c46134d4565b5b5f6138d289828a01613705565b96505060206138e389828a01613658565b955050604087013567ffffffffffffffff811115613904576139036134d8565b5b61391089828a0161387e565b945050606087013567ffffffffffffffff811115613931576139306134d8565b5b61393d89828a0161387e565b935050608087013567ffffffffffffffff81111561395e5761395d6134d8565b5b61396a89828a0161387e565b92505060a087013567ffffffffffffffff81111561398b5761398a6134d8565b5b61399789828a0161387e565b9150509295509295509295565b5f805f606084860312156139bb576139ba6134d4565b5b5f6139c886828701613705565b93505060206139d986828701613705565b92505060406139ea86828701613658565b9150509250925092565b5f60a082019050613a075f830188613757565b613a1460208301876136c7565b613a216040830186613757565b613a2e6060830185613567565b613a3b6080830184613757565b9695505050505050565b5f60208284031215613a5a57613a596134d4565b5b5f613a6784828501613705565b91505092915050565b613a798161355c565b8114613a83575f80fd5b50565b5f81359050613a9481613a70565b92915050565b5f8060408385031215613ab057613aaf6134d4565b5b5f613abd85828601613705565b9250506020613ace85828601613a86565b9150509250929050565b5f8060408385031215613aee57613aed6134d4565b5b5f613afb85828601613658565b9250506020613b0c85828601613658565b9150509250929050565b5f67ffffffffffffffff821115613b3057613b2f613787565b5b613b39826135d1565b9050602081019050919050565b5f613b58613b5384613b16565b6137e5565b905082815260208101848484011115613b7457613b73613783565b5b613b7f84828561382f565b509392505050565b5f82601f830112613b9b57613b9a61377f565b5b8135613bab848260208601613b46565b91505092915050565b5f805f8060808587031215613bcc57613bcb6134d4565b5b5f613bd987828801613705565b9450506020613bea87828801613705565b9350506040613bfb87828801613658565b925050606085013567ffffffffffffffff811115613c1c57613c1b6134d8565b5b613c2887828801613b87565b91505092959194509250565b613c3d81613639565b82525050565b613c4c816136b6565b82525050565b5f82825260208201905092915050565b5f613c6c8261358f565b613c768185613c52565b9350613c868185602086016135a9565b613c8f816135d1565b840191505092915050565b5f60e083015f830151613caf5f860182613c34565b506020830151613cc26020860182613c43565b5060408301518482036040860152613cda8282613c62565b9150506060830151613cef6060860182613c34565b5060808301518482036080860152613d078282613c62565b91505060a083015184820360a0860152613d218282613c62565b91505060c083015184820360c0860152613d3b8282613c62565b9150508091505092915050565b5f6020820190508181035f830152613d608184613c9a565b905092915050565b5f8060408385031215613d7e57613d7d6134d4565b5b5f613d8b85828601613705565b9250506020613d9c85828601613705565b9150509250929050565b5f60e082019050613db95f83018a613757565b613dc660208301896136c7565b8181036040830152613dd881886135e1565b9050613de76060830187613757565b8181036080830152613df981866135e1565b905081810360a0830152613e0d81856135e1565b905081810360c0830152613e2181846135e1565b905098975050505050505050565b7f4e487b71000000000000000000000000000000000000000000000000000000005f52602260045260245ffd5b5f6002820490506001821680613e7357607f821691505b602082108103613e8657613e85613e2f565b5b50919050565b7f4552433732313a20617070726f76616c20746f2063757272656e74206f776e655f8201527f7200000000000000000000000000000000000000000000000000000000000000602082015250565b5f613ee6602183613599565b9150613ef182613e8c565b604082019050919050565b5f6020820190508181035f830152613f1381613eda565b9050919050565b7f4552433732313a20617070726f76652063616c6c6572206973206e6f7420746f5f8201527f6b656e206f776e6572206f7220617070726f76656420666f7220616c6c000000602082015250565b5f613f74603d83613599565b9150613f7f82613f1a565b604082019050919050565b5f6020820190508181035f830152613fa181613f68565b9050919050565b5f819050815f5260205f209050919050565b5f6020601f8301049050919050565b5f82821b905092915050565b5f600883026140047fffffffffffffffffffffffffffffffffffffffffffffffffffffffffffffffff82613fc9565b61400e8683613fc9565b95508019841693508086168417925050509392505050565b5f819050919050565b5f61404961404461403f84613639565b614026565b613639565b9050919050565b5f819050919050565b6140628361402f565b61407661406e82614050565b848454613fd5565b825550505050565b5f90565b61408a61407e565b614095818484614059565b505050565b5b818110156140b8576140ad5f82614082565b60018101905061409b565b5050565b601f8211156140fd576140ce81613fa8565b6140d784613fba565b810160208510156140e6578190505b6140fa6140f285613fba565b83018261409a565b50505b505050565b5f82821c905092915050565b5f61411d5f1984600802614102565b1980831691505092915050565b5f614135838361410e565b9150826002028217905092915050565b61414e8261358f565b67ffffffffffffffff81111561416757614166613787565b5b6141718254613e5c565b61417c8282856140bc565b5f60209050601f8311600181146141ad575f841561419b578287015190505b6141a5858261412a565b86555061420c565b601f1984166141bb86613fa8565b5f5b828110156141e2578489015182556001820191506020850194506020810190506141bd565b868310156141ff57848901516141fb601f89168261410e565b8355505b6001600288020188555050505b505050505050565b5f60c0820190506142275f830189613757565b818103602083015261423981886135e1565b90506142486040830187613757565b818103606083015261425a81866135e1565b9050818103608083015261426e81856135e1565b905081810360a083015261428281846135e1565b9050979650505050505050565b7f4e487b71000000000000000000000000000000000000000000000000000000005f52601160045260245ffd5b5f6142c682613639565b91506142d183613639565b92508282019050808211156142e9576142e861428f565b5b92915050565b7f4552433732313a2063616c6c6572206973206e6f7420746f6b656e206f776e655f8201527f72206f7220617070726f76656400000000000000000000000000000000000000602082015250565b5f614349602d83613599565b9150614354826142ef565b604082019050919050565b5f6020820190508181035f8301526143768161433d565b9050919050565b7f596f757220417265204e6f74204f776e6572204f662054686973204e465400005f82015250565b5f6143b1601e83613599565b91506143bc8261437d565b602082019050919050565b5f6020820190508181035f8301526143de816143a5565b9050919050565b7f4e487b71000000000000000000000000000000000000000000000000000000005f52603260045260245ffd5b5f61441c82613639565b91507fffffffffffffffffffffffffffffffffffffffffffffffffffffffffffffffff820361444e5761444d61428f565b5b600182019050919050565b7f455243373231456e756d657261626c653a206f776e657220696e646578206f755f8201527f74206f6620626f756e6473000000000000000000000000000000000000000000602082015250565b5f6144b3602b83613599565b91506144be82614459565b604082019050919050565b5f6020820190508181035f8301526144e0816144a7565b9050919050565b7f455243373231456e756d657261626c653a20676c6f62616c20696e646578206f5f8201527f7574206f6620626f756e64730000000000000000000000000000000000000000602082015250565b5f614541602c83613599565b915061454c826144e7565b604082019050919050565b5f6020820190508181035f83015261456e81614535565b9050919050565b7f4552433732313a20696e76616c696420746f6b656e20494400000000000000005f82015250565b5f6145a9601883613599565b91506145b482614575565b602082019050919050565b5f6020820190508181035f8301526145d68161459d565b9050919050565b7f4552433732313a2061646472657373207a65726f206973206e6f7420612076615f8201527f6c6964206f776e65720000000000000000000000000000000000000000000000602082015250565b5f614637602983613599565b9150614642826145dd565b604082019050919050565b5f6020820190508181035f8301526146648161462b565b9050919050565b7f4f666665722048617320456e64656400000000000000000000000000000000005f82015250565b5f61469f600f83613599565b91506146aa8261466b565b602082019050919050565b5f6020820190508181035f8301526146cc81614693565b9050919050565b5f6080820190506146e65f8301876136c7565b6146f360208301866136c7565b6147006040830185613757565b61470d6060830184613757565b95945050505050565b7f4e465420646f6573206e6f7420657869737400000000000000000000000000005f82015250565b5f61474a601283613599565b915061475582614716565b602082019050919050565b5f6020820190508181035f8301526147778161473e565b9050919050565b7f596f7520617265206e6f74206f776e6572206f662074686973206e66740000005f82015250565b5f6147b2601d83613599565b91506147bd8261477e565b602082019050919050565b5f6020820190508181035f8301526147df816147a6565b9050919050565b5f6080820190506147f95f8301876136c7565b6148066020830186613757565b6148136040830185613757565b6148206060830184613757565b95945050505050565b5f81905092915050565b5f61483d8261358f565b6148478185614829565b93506148578185602086016135a9565b80840191505092915050565b5f61486e8285614833565b915061487a8284614833565b91508190509392505050565b7f4f776e61626c653a206e6577206f776e657220697320746865207a65726f20615f8201527f6464726573730000000000000000000000000000000000000000000000000000602082015250565b5f6148e0602683613599565b91506148eb82614886565b604082019050919050565b5f6020820190508181035f83015261490d816148d4565b9050919050565b7f4552433732313a206d696e7420746f20746865207a65726f20616464726573735f82015250565b5f614948602083613599565b915061495382614914565b602082019050919050565b5f6020820190508181035f8301526149758161493c565b9050919050565b7f4552433732313a20746f6b656e20616c7265616479206d696e746564000000005f82015250565b5f6149b0601c83613599565b91506149bb8261497c565b602082019050919050565b5f6020820190508181035f8301526149dd816149a4565b9050919050565b7f4552433732313a207472616e736665722066726f6d20696e636f7272656374205f8201527f6f776e6572000000000000000000000000000000000000000000000000000000602082015250565b5f614a3e602583613599565b9150614a49826149e4565b604082019050919050565b5f6020820190508181035f830152614a6b81614a32565b9050919050565b7f4552433732313a207472616e7366657220746f20746865207a65726f206164645f8201527f7265737300000000000000000000000000000000000000000000000000000000602082015250565b5f614acc602483613599565b9150614ad782614a72565b604082019050919050565b5f6020820190508181035f830152614af981614ac0565b9050919050565b7f4f776e61626c653a2063616c6c6572206973206e6f7420746865206f776e65725f82015250565b5f614b34602083613599565b9150614b3f82614b00565b602082019050919050565b5f6020820190508181035f830152614b6181614b28565b9050919050565b7f4552433732313a20617070726f766520746f2063616c6c6572000000000000005f82015250565b5f614b9c601983613599565b9150614ba782614b68565b602082019050919050565b5f6020820190508181035f830152614bc981614b90565b9050919050565b7f4552433732313a207472616e7366657220746f206e6f6e2045524337323152655f8201527f63656976657220696d706c656d656e7465720000000000000000000000000000602082015250565b5f614c2a603283613599565b9150614c3582614bd0565b604082019050919050565b5f6020820190508181035f830152614c5781614c1e565b9050919050565b7f4e487b71000000000000000000000000000000000000000000000000000000005f52601260045260245ffd5b5f81519050919050565b5f82825260208201905092915050565b5f614caf82614c8b565b614cb98185614c95565b9350614cc98185602086016135a9565b614cd2816135d1565b840191505092915050565b5f608082019050614cf05f8301876136c7565b614cfd60208301866136c7565b614d0a6040830185613757565b8181036060830152614d1c8184614ca5565b905095945050505050565b5f81519050614d3581613507565b92915050565b5f60208284031215614d5057614d4f6134d4565b5b5f614d5d84828501614d27565b91505092915050565b7f455243373231456e756d657261626c653a20636f6e73656375746976652074725f8201527f616e7366657273206e6f7420737570706f727465640000000000000000000000602082015250565b5f614dc0603583613599565b9150614dcb82614d66565b604082019050919050565b5f6020820190508181035f830152614ded81614db4565b9050919050565b5f614dfe82613639565b9150614e0983613639565b9250828203905081811115614e2157614e2061428f565b5b92915050565b7f4e487b71000000000000000000000000000000000000000000000000000000005f52603160045260245ffdfea2646970667358221220c06a3e766a219cfa9445a504b88ddadf22381a14d036e7391b1d398067ac6fba64736f6c63430008150033",
  "immutableReferences": {},
  "source": "// SPDX-License-Identifier: GPL-3.0\r\npragma solidity ^0.8.9;\r\n\r\nimport \"@openzeppelin/contracts/token/ERC721/ERC721.sol\";\r\nimport \"@openzeppelin/contracts/token/ERC721/extensions/ERC721Enumerable.sol\";\r\nimport \"@openzeppelin/contracts/access/Ownable.sol\";\r\n\r\ncontract NFT is ERC721, ERC721Enumerable, Ownable {\r\n    constructor() ERC721(\"MyToken\", \"MTK\") {}\r\n\r\n    uint NFT_ID = 1;\r\n    struct Detail {\r\n        uint id;    \r\n        address nftowner;\r\n        string imgUrl;\r\n        uint nftprice;\r\n        string nft_title;\r\n        string nftDescription;\r\n        string nftcreator;\r\n    }\r\n\r\n    struct sellnft {\r\n        uint Id;\r\n        address NFTOwner;\r\n        uint Price;\r\n        // string imgUrl;\r\n        bool is_Offer;\r\n        uint OfferEnd; \r\n    }\r\n\r\n    uint[] public NFTId;\r\n    uint256 public offerExpirationTime;\r\n\r\n    mapping(uint=>sellnft) public sellData;\r\n    mapping(uint=>Detail) public data;\r\n    mapping(address=>Detail[]) userdata;\r\n\r\n    event AddNFT(uint NFT_ID,string imgUrl,uint nftprice,string nft_title,string nftDescription,string nftcreator);\r\n    event sellNFT(address nftowner,uint offerPrice,uint offercreatedtime,uint offerended);\r\n    event buynft(address nftowner,address buyaddress,uint buyprice,uint buytime);\r\n    // uint256 public constant MINT_PRICE = 0.05 ether;\r\n\r\n\r\n    function safeMint(address to, uint256 tokenId) public onlyOwner {\r\n        _safeMint(to, tokenId);\r\n    }\r\n\r\n    // The following functions are overrides required by Solidity.\r\n\r\n    function _beforeTokenTransfer(address from, address to, uint256 tokenId, uint256 batchSize)\r\n        internal\r\n        override(ERC721, ERC721Enumerable)\r\n    {\r\n        super._beforeTokenTransfer(from, to, tokenId, batchSize);\r\n    }\r\n\r\n    function supportsInterface(bytes4 interfaceId)\r\n        public\r\n        view\r\n        override(ERC721, ERC721Enumerable)\r\n        returns (bool)\r\n    {\r\n        return super.supportsInterface(interfaceId);\r\n    }\r\n\r\n    function Add_nft (address _add, uint _price,string memory _title , string memory _imgUrl,string memory _des,string memory _creator ) public payable {\r\n        _mint(_add,NFT_ID);\r\n        data[NFT_ID] = Detail(NFT_ID,_add,_imgUrl,_price,_title,_des,_creator);\r\n        userdata[_add].push(Detail(NFT_ID,_add,_imgUrl,_price,_title,_des,_creator));\r\n        emit AddNFT(NFT_ID,_imgUrl,_price,_title,_des,_creator);\r\n        NFT_ID += 1;\r\n    }\r\n\r\n    function NFT_DATA (uint _id) public view returns(Detail memory){\r\n        return data[_id];\r\n    }\r\n\r\n\r\n    function IMG_URL (uint _id) public view returns(string memory){\r\n        return data[_id].imgUrl;\r\n    }\r\n\r\n    function SellNFT( uint _ID,uint _price) public returns (string memory) {\r\n        require(_exists(_ID), \"NFT does not exist\");\r\n        // address nft_O = data[_ID].nftowner;\r\n        require(msg.sender == data[_ID].nftowner,\"You are not owner of this nft\");\r\n        // require(msg.sender == , \"You do not own this NFT\");\r\n        sellData[_ID] = sellnft(_ID,msg.sender,_price,true,block.timestamp);\r\n        offerExpirationTime = block.timestamp + 10 minutes;\r\n        _approve(address(this),_ID);\r\n        // _isApprovedOrOwner(address(this),_ID);\r\n        // _setApprovalForAll(msg.sender,address(this),true);\r\n        NFTId.push(_ID);\r\n        emit sellNFT(msg.sender,_price,block.timestamp,offerExpirationTime);\r\n        return \"sucessfully sell nft\";\r\n    }\r\n\r\n    function RemoveSell (uint _ID) public {\r\n        require(sellData[_ID].NFTOwner==msg.sender,\"Your Are Not Owner Of This NFT\");\r\n        uint i = 0;\r\n        while(i < NFTId.length){\r\n            if(NFTId[i] == _ID){\r\n                delete NFTId[i];\r\n            }\r\n            i++;\r\n        }\r\n    }\r\n\r\n    function ArrayLengh () public view returns(uint) {\r\n        return NFTId.length;\r\n    }\r\n\r\n    function BuyNFT (uint _ID) public payable returns(string memory) {\r\n        require(offerExpirationTime>=block.timestamp,\"Offer Has Ended\");\r\n        // require(msg.value==sellData[_ID].Price,\"Invalid value\");\r\n        if(offerExpirationTime<=block.timestamp){\r\n            sellData[_ID].is_Offer = false;\r\n            delete NFTId[0];\r\n            // string memory msg = \"This Offer is ended\";\r\n            return \"This Offer is ended\";\r\n        }\r\n        else{\r\n            sellData[_ID].is_Offer = true;\r\n            _approve(msg.sender, _ID);\r\n            address o = data[_ID].nftowner;\r\n            safeTransferFrom(o,msg.sender,_ID);\r\n            payable(o).transfer(msg.value);\r\n            data[_ID].nftowner = msg.sender;\r\n            data[_ID].nftprice = sellData[_ID].Price;\r\n            sellData[_ID].NFTOwner = msg.sender;\r\n\r\n            emit buynft(o,msg.sender,sellData[_ID].Price,block.timestamp);\r\n            delete NFTId[0];\r\n        }\r\n\r\n        return \"NFT purchase successful\";\r\n    }\r\n\r\n    function Offer_ID (uint _index) public view returns(uint) {\r\n        return NFTId[_index];\r\n    }\r\n\r\n    function offerExpired() public view returns (bool) {\r\n        return (block.timestamp >= offerExpirationTime);\r\n    }\r\n}",
  "sourcePath": "D:\\block chain\\Tast_Nftmarketplace_Dapp\\Nft_backend\\contracts\\NFT.sol",
  "compiler": {
    "name": "solc",
    "version": "0.8.21+commit.d9974bed.Emscripten.clang"
  },
  "schemaVersion": "3.4.16",
  "updatedAt": "2023-09-10T09:45:47.768Z",
  "devdoc": {
    "events": {
      "Approval(address,address,uint256)": {
        "details": "Emitted when `owner` enables `approved` to manage the `tokenId` token."
      },
      "ApprovalForAll(address,address,bool)": {
        "details": "Emitted when `owner` enables or disables (`approved`) `operator` to manage all of its assets."
      },
      "Transfer(address,address,uint256)": {
        "details": "Emitted when `tokenId` token is transferred from `from` to `to`."
      }
    },
    "kind": "dev",
    "methods": {
      "approve(address,uint256)": {
        "details": "See {IERC721-approve}."
      },
      "balanceOf(address)": {
        "details": "See {IERC721-balanceOf}."
      },
      "getApproved(uint256)": {
        "details": "See {IERC721-getApproved}."
      },
      "isApprovedForAll(address,address)": {
        "details": "See {IERC721-isApprovedForAll}."
      },
      "name()": {
        "details": "See {IERC721Metadata-name}."
      },
      "owner()": {
        "details": "Returns the address of the current owner."
      },
      "ownerOf(uint256)": {
        "details": "See {IERC721-ownerOf}."
      },
      "renounceOwnership()": {
        "details": "Leaves the contract without owner. It will not be possible to call `onlyOwner` functions. Can only be called by the current owner. NOTE: Renouncing ownership will leave the contract without an owner, thereby disabling any functionality that is only available to the owner."
      },
      "safeTransferFrom(address,address,uint256)": {
        "details": "See {IERC721-safeTransferFrom}."
      },
      "safeTransferFrom(address,address,uint256,bytes)": {
        "details": "See {IERC721-safeTransferFrom}."
      },
      "setApprovalForAll(address,bool)": {
        "details": "See {IERC721-setApprovalForAll}."
      },
      "symbol()": {
        "details": "See {IERC721Metadata-symbol}."
      },
      "tokenByIndex(uint256)": {
        "details": "See {IERC721Enumerable-tokenByIndex}."
      },
      "tokenOfOwnerByIndex(address,uint256)": {
        "details": "See {IERC721Enumerable-tokenOfOwnerByIndex}."
      },
      "tokenURI(uint256)": {
        "details": "See {IERC721Metadata-tokenURI}."
      },
      "totalSupply()": {
        "details": "See {IERC721Enumerable-totalSupply}."
      },
      "transferFrom(address,address,uint256)": {
        "details": "See {IERC721-transferFrom}."
      },
      "transferOwnership(address)": {
        "details": "Transfers ownership of the contract to a new account (`newOwner`). Can only be called by the current owner."
      }
    },
    "version": 1
  },
  "userdoc": {
    "kind": "user",
    "methods": {},
    "version": 1
  }
}